{
  "_format": "hh-sol-artifact-1",
  "contractName": "CoinBluechip",
  "sourceName": "contracts/dca/bluechips/CoinBluechip.sol",
  "abi": [
    {
      "inputs": [],
      "stateMutability": "nonpayable",
      "type": "constructor"
    },
    {
      "inputs": [],
      "name": "NothingToInvest",
      "type": "error"
    },
    {
      "inputs": [],
      "name": "NothingToWithdraw",
      "type": "error"
    },
    {
      "inputs": [],
      "name": "PositionsLimitReached",
      "type": "error"
    },
    {
      "inputs": [],
      "name": "TooSmallDeposit",
      "type": "error"
    },
    {
      "anonymous": false,
      "inputs": [
        {
          "indexed": false,
          "internalType": "address",
          "name": "previousAdmin",
          "type": "address"
        },
        {
          "indexed": false,
          "internalType": "address",
          "name": "newAdmin",
          "type": "address"
        }
      ],
      "name": "AdminChanged",
      "type": "event"
    },
    {
      "anonymous": false,
      "inputs": [
        {
          "indexed": true,
          "internalType": "address",
          "name": "beacon",
          "type": "address"
        }
      ],
      "name": "BeaconUpgraded",
      "type": "event"
    },
    {
      "anonymous": false,
      "inputs": [
        {
          "indexed": true,
          "internalType": "address",
          "name": "sender",
          "type": "address"
        },
        {
          "indexed": false,
          "internalType": "uint256",
          "name": "amount",
          "type": "uint256"
        },
        {
          "indexed": false,
          "internalType": "uint256",
          "name": "amountSplit",
          "type": "uint256"
        }
      ],
      "name": "Deposit",
      "type": "event"
    },
    {
      "anonymous": false,
      "inputs": [
        {
          "indexed": false,
          "internalType": "uint8",
          "name": "version",
          "type": "uint8"
        }
      ],
      "name": "Initialized",
      "type": "event"
    },
    {
      "anonymous": false,
      "inputs": [
        {
          "indexed": false,
          "internalType": "uint256",
          "name": "depositAmountSpent",
          "type": "uint256"
        },
        {
          "indexed": false,
          "internalType": "uint256",
          "name": "bluechipReceived",
          "type": "uint256"
        },
        {
          "indexed": false,
          "internalType": "uint256",
          "name": "investedAt",
          "type": "uint256"
        },
        {
          "indexed": false,
          "internalType": "uint256",
          "name": "historicalIndex",
          "type": "uint256"
        }
      ],
      "name": "Invest",
      "type": "event"
    },
    {
      "anonymous": false,
      "inputs": [
        {
          "indexed": true,
          "internalType": "address",
          "name": "previousOwner",
          "type": "address"
        },
        {
          "indexed": true,
          "internalType": "address",
          "name": "newOwner",
          "type": "address"
        }
      ],
      "name": "OwnershipTransferred",
      "type": "event"
    },
    {
      "anonymous": false,
      "inputs": [
        {
          "indexed": false,
          "internalType": "address",
          "name": "account",
          "type": "address"
        }
      ],
      "name": "Paused",
      "type": "event"
    },
    {
      "anonymous": false,
      "inputs": [
        {
          "indexed": true,
          "internalType": "enum DCABaseUpgradeableCutted.BluechipInvestmentState",
          "name": "prevStatus",
          "type": "uint8"
        },
        {
          "indexed": true,
          "internalType": "enum DCABaseUpgradeableCutted.BluechipInvestmentState",
          "name": "newStatus",
          "type": "uint8"
        }
      ],
      "name": "StatusChanged",
      "type": "event"
    },
    {
      "anonymous": false,
      "inputs": [
        {
          "indexed": false,
          "internalType": "address",
          "name": "account",
          "type": "address"
        }
      ],
      "name": "Unpaused",
      "type": "event"
    },
    {
      "anonymous": false,
      "inputs": [
        {
          "indexed": true,
          "internalType": "address",
          "name": "implementation",
          "type": "address"
        }
      ],
      "name": "Upgraded",
      "type": "event"
    },
    {
      "anonymous": false,
      "inputs": [
        {
          "indexed": true,
          "internalType": "address",
          "name": "sender",
          "type": "address"
        },
        {
          "indexed": false,
          "internalType": "uint256",
          "name": "withdrawnDeposit",
          "type": "uint256"
        },
        {
          "indexed": false,
          "internalType": "uint256",
          "name": "withdrawnBluechip",
          "type": "uint256"
        }
      ],
      "name": "Withdraw",
      "type": "event"
    },
    {
      "inputs": [],
      "name": "bluechipInvestmentState",
      "outputs": [
        {
          "internalType": "enum DCABaseUpgradeableCutted.BluechipInvestmentState",
          "name": "",
          "type": "uint8"
        }
      ],
      "stateMutability": "view",
      "type": "function"
    },
    {
      "inputs": [
        {
          "internalType": "uint256",
          "name": "",
          "type": "uint256"
        }
      ],
      "name": "bluechipToDepositSwapBins",
      "outputs": [
        {
          "internalType": "uint256",
          "name": "",
          "type": "uint256"
        }
      ],
      "stateMutability": "view",
      "type": "function"
    },
    {
      "inputs": [
        {
          "internalType": "uint256",
          "name": "",
          "type": "uint256"
        }
      ],
      "name": "bluechipToDepositSwapPath",
      "outputs": [
        {
          "internalType": "address",
          "name": "",
          "type": "address"
        }
      ],
      "stateMutability": "view",
      "type": "function"
    },
    {
      "inputs": [],
      "name": "bluechipTokenInfo",
      "outputs": [
        {
          "internalType": "contract IERC20Upgradeable",
          "name": "token",
          "type": "address"
        },
        {
          "internalType": "uint8",
          "name": "decimals",
          "type": "uint8"
        }
      ],
      "stateMutability": "view",
      "type": "function"
    },
    {
      "inputs": [],
      "name": "canInvest",
      "outputs": [
        {
          "internalType": "bool",
          "name": "",
          "type": "bool"
        }
      ],
      "stateMutability": "view",
      "type": "function"
    },
    {
      "inputs": [],
      "name": "currentDCAHistoryIndex",
      "outputs": [
        {
          "internalType": "uint256",
          "name": "",
          "type": "uint256"
        }
      ],
      "stateMutability": "view",
      "type": "function"
    },
    {
      "inputs": [],
      "name": "currentInvestQueueIndex",
      "outputs": [
        {
          "internalType": "uint8",
          "name": "",
          "type": "uint8"
        }
      ],
      "stateMutability": "view",
      "type": "function"
    },
    {
      "inputs": [],
      "name": "dcaInvestor",
      "outputs": [
        {
          "internalType": "address",
          "name": "",
          "type": "address"
        }
      ],
      "stateMutability": "view",
      "type": "function"
    },
    {
      "inputs": [
        {
          "internalType": "uint256",
          "name": "amount",
          "type": "uint256"
        },
        {
          "internalType": "uint8",
          "name": "amountSplit",
          "type": "uint8"
        }
      ],
      "name": "deposit",
      "outputs": [],
      "stateMutability": "nonpayable",
      "type": "function"
    },
    {
      "inputs": [],
      "name": "depositFee",
      "outputs": [
        {
          "internalType": "address",
          "name": "feeReceiver",
          "type": "address"
        },
        {
          "internalType": "uint16",
          "name": "fee",
          "type": "uint16"
        }
      ],
      "stateMutability": "view",
      "type": "function"
    },
    {
      "inputs": [
        {
          "internalType": "uint256",
          "name": "",
          "type": "uint256"
        }
      ],
      "name": "depositToBluechipSwapBins",
      "outputs": [
        {
          "internalType": "uint256",
          "name": "",
          "type": "uint256"
        }
      ],
      "stateMutability": "view",
      "type": "function"
    },
    {
      "inputs": [
        {
          "internalType": "uint256",
          "name": "",
          "type": "uint256"
        }
      ],
      "name": "depositToBluechipSwapPath",
      "outputs": [
        {
          "internalType": "address",
          "name": "",
          "type": "address"
        }
      ],
      "stateMutability": "view",
      "type": "function"
    },
    {
      "inputs": [],
      "name": "depositToken",
      "outputs": [
        {
          "internalType": "contract IERC20Upgradeable",
          "name": "",
          "type": "address"
        }
      ],
      "stateMutability": "view",
      "type": "function"
    },
    {
      "inputs": [],
      "name": "depositTokenInfo",
      "outputs": [
        {
          "internalType": "contract IERC20Upgradeable",
          "name": "token",
          "type": "address"
        },
        {
          "internalType": "uint8",
          "name": "decimals",
          "type": "uint8"
        }
      ],
      "stateMutability": "view",
      "type": "function"
    },
    {
      "inputs": [
        {
          "internalType": "address",
          "name": "depositor",
          "type": "address"
        }
      ],
      "name": "depositorInfo",
      "outputs": [
        {
          "components": [
            {
              "components": [
                {
                  "internalType": "uint256",
                  "name": "depositAmount",
                  "type": "uint256"
                },
                {
                  "internalType": "uint8",
                  "name": "amountSplit",
                  "type": "uint8"
                },
                {
                  "internalType": "uint256",
                  "name": "investedAt",
                  "type": "uint256"
                },
                {
                  "internalType": "uint256",
                  "name": "investedAtHistoricalIndex",
                  "type": "uint256"
                }
              ],
              "internalType": "struct DCABaseUpgradeableCutted.Position[]",
              "name": "positions",
              "type": "tuple[]"
            }
          ],
          "internalType": "struct DCABaseUpgradeableCutted.DCADepositor",
          "name": "",
          "type": "tuple"
        }
      ],
      "stateMutability": "view",
      "type": "function"
    },
    {
      "inputs": [],
      "name": "emergencyExitBluechipToken",
      "outputs": [
        {
          "internalType": "contract IERC20Upgradeable",
          "name": "token",
          "type": "address"
        },
        {
          "internalType": "uint8",
          "name": "decimals",
          "type": "uint8"
        }
      ],
      "stateMutability": "view",
      "type": "function"
    },
    {
      "inputs": [],
      "name": "emergencyExitDepositToken",
      "outputs": [
        {
          "internalType": "contract IERC20Upgradeable",
          "name": "token",
          "type": "address"
        },
        {
          "internalType": "uint8",
          "name": "decimals",
          "type": "uint8"
        }
      ],
      "stateMutability": "view",
      "type": "function"
    },
    {
      "inputs": [],
      "name": "emergencySellBluechipPrice",
      "outputs": [
        {
          "internalType": "uint256",
          "name": "",
          "type": "uint256"
        }
      ],
      "stateMutability": "view",
      "type": "function"
    },
    {
      "inputs": [],
      "name": "emergencySellDepositPrice",
      "outputs": [
        {
          "internalType": "uint256",
          "name": "",
          "type": "uint256"
        }
      ],
      "stateMutability": "view",
      "type": "function"
    },
    {
      "inputs": [
        {
          "components": [
            {
              "internalType": "contract IERC20Upgradeable",
              "name": "token",
              "type": "address"
            },
            {
              "internalType": "uint8",
              "name": "decimals",
              "type": "uint8"
            }
          ],
          "internalType": "struct DCABaseUpgradeableCutted.TokenInfo",
          "name": "emergencyExitDepositToken_",
          "type": "tuple"
        },
        {
          "internalType": "address[]",
          "name": "depositSwapPath",
          "type": "address[]"
        },
        {
          "internalType": "uint256[]",
          "name": "depositSwapBins",
          "type": "uint256[]"
        },
        {
          "components": [
            {
              "internalType": "contract IERC20Upgradeable",
              "name": "token",
              "type": "address"
            },
            {
              "internalType": "uint8",
              "name": "decimals",
              "type": "uint8"
            }
          ],
          "internalType": "struct DCABaseUpgradeableCutted.TokenInfo",
          "name": "emergencyExitBluechipToken_",
          "type": "tuple"
        },
        {
          "internalType": "address[]",
          "name": "bluechipSwapPath",
          "type": "address[]"
        },
        {
          "internalType": "uint256[]",
          "name": "bluechipSwapBins",
          "type": "uint256[]"
        }
      ],
      "name": "emergencyWithdrawFunds",
      "outputs": [],
      "stateMutability": "nonpayable",
      "type": "function"
    },
    {
      "inputs": [],
      "name": "equityValuation",
      "outputs": [
        {
          "components": [
            {
              "internalType": "uint256",
              "name": "totalDepositToken",
              "type": "uint256"
            },
            {
              "internalType": "uint256",
              "name": "totalBluechipToken",
              "type": "uint256"
            },
            {
              "internalType": "address",
              "name": "bluechipToken",
              "type": "address"
            }
          ],
          "internalType": "struct DCABaseUpgradeableCutted.DCAEquityValuation[]",
          "name": "",
          "type": "tuple[]"
        }
      ],
      "stateMutability": "view",
      "type": "function"
    },
    {
      "inputs": [
        {
          "internalType": "uint256",
          "name": "index",
          "type": "uint256"
        }
      ],
      "name": "getHistoricalGaugeAt",
      "outputs": [
        {
          "internalType": "uint256",
          "name": "",
          "type": "uint256"
        },
        {
          "internalType": "uint256",
          "name": "",
          "type": "uint256"
        }
      ],
      "stateMutability": "view",
      "type": "function"
    },
    {
      "inputs": [
        {
          "internalType": "uint8",
          "name": "index",
          "type": "uint8"
        }
      ],
      "name": "getInvestAmountAt",
      "outputs": [
        {
          "internalType": "uint256",
          "name": "",
          "type": "uint256"
        }
      ],
      "stateMutability": "view",
      "type": "function"
    },
    {
      "inputs": [
        {
          "components": [
            {
              "components": [
                {
                  "internalType": "address",
                  "name": "feeReceiver",
                  "type": "address"
                },
                {
                  "internalType": "uint16",
                  "name": "fee",
                  "type": "uint16"
                }
              ],
              "internalType": "struct DCABaseUpgradeableCutted.DepositFee",
              "name": "depositFee",
              "type": "tuple"
            },
            {
              "internalType": "address",
              "name": "dcaInvestor",
              "type": "address"
            },
            {
              "components": [
                {
                  "internalType": "contract IERC20Upgradeable",
                  "name": "token",
                  "type": "address"
                },
                {
                  "internalType": "uint8",
                  "name": "decimals",
                  "type": "uint8"
                }
              ],
              "internalType": "struct DCABaseUpgradeableCutted.TokenInfo",
              "name": "depositTokenInfo",
              "type": "tuple"
            },
            {
              "internalType": "uint256",
              "name": "investmentPeriod",
              "type": "uint256"
            },
            {
              "internalType": "uint256",
              "name": "lastInvestmentTimestamp",
              "type": "uint256"
            },
            {
              "internalType": "uint256",
              "name": "minDepositAmount",
              "type": "uint256"
            },
            {
              "internalType": "uint16",
              "name": "positionsLimit",
              "type": "uint16"
            },
            {
              "components": [
                {
                  "internalType": "enum SwapLib.Dex",
                  "name": "dex",
                  "type": "uint8"
                },
                {
                  "internalType": "address",
                  "name": "router",
                  "type": "address"
                }
              ],
              "internalType": "struct SwapLib.Router",
              "name": "router",
              "type": "tuple"
            },
            {
              "internalType": "address[]",
              "name": "depositToBluechipSwapPath",
              "type": "address[]"
            },
            {
              "internalType": "address[]",
              "name": "bluechipToDepositSwapPath",
              "type": "address[]"
            },
            {
              "internalType": "uint256[]",
              "name": "depositToBluechipSwapBins",
              "type": "uint256[]"
            },
            {
              "internalType": "uint256[]",
              "name": "bluechipToDepositSwapBins",
              "type": "uint256[]"
            }
          ],
          "internalType": "struct DCABaseUpgradeableCutted.DCAStrategyInitArgs",
          "name": "args",
          "type": "tuple"
        },
        {
          "components": [
            {
              "internalType": "contract IERC20Upgradeable",
              "name": "token",
              "type": "address"
            },
            {
              "internalType": "uint8",
              "name": "decimals",
              "type": "uint8"
            }
          ],
          "internalType": "struct DCABaseUpgradeableCutted.TokenInfo",
          "name": "bluechipTokenInfo_",
          "type": "tuple"
        }
      ],
      "name": "initialize",
      "outputs": [],
      "stateMutability": "nonpayable",
      "type": "function"
    },
    {
      "inputs": [],
      "name": "invest",
      "outputs": [],
      "stateMutability": "nonpayable",
      "type": "function"
    },
    {
      "inputs": [],
      "name": "investmentPeriod",
      "outputs": [
        {
          "internalType": "uint256",
          "name": "",
          "type": "uint256"
        }
      ],
      "stateMutability": "view",
      "type": "function"
    },
    {
      "inputs": [],
      "name": "isEmergencyExited",
      "outputs": [
        {
          "internalType": "bool",
          "name": "",
          "type": "bool"
        }
      ],
      "stateMutability": "view",
      "type": "function"
    },
    {
      "inputs": [],
      "name": "lastInvestmentTimestamp",
      "outputs": [
        {
          "internalType": "uint256",
          "name": "",
          "type": "uint256"
        }
      ],
      "stateMutability": "view",
      "type": "function"
    },
    {
      "inputs": [],
      "name": "minDepositAmount",
      "outputs": [
        {
          "internalType": "uint256",
          "name": "",
          "type": "uint256"
        }
      ],
      "stateMutability": "view",
      "type": "function"
    },
    {
      "inputs": [],
      "name": "owner",
      "outputs": [
        {
          "internalType": "address",
          "name": "",
          "type": "address"
        }
      ],
      "stateMutability": "view",
      "type": "function"
    },
    {
      "inputs": [],
      "name": "pause",
      "outputs": [],
      "stateMutability": "nonpayable",
      "type": "function"
    },
    {
      "inputs": [],
      "name": "paused",
      "outputs": [
        {
          "internalType": "bool",
          "name": "",
          "type": "bool"
        }
      ],
      "stateMutability": "view",
      "type": "function"
    },
    {
      "inputs": [],
      "name": "positionsLimit",
      "outputs": [
        {
          "internalType": "uint16",
          "name": "",
          "type": "uint16"
        }
      ],
      "stateMutability": "view",
      "type": "function"
    },
    {
      "inputs": [],
      "name": "proxiableUUID",
      "outputs": [
        {
          "internalType": "bytes32",
          "name": "",
          "type": "bytes32"
        }
      ],
      "stateMutability": "view",
      "type": "function"
    },
    {
      "inputs": [],
      "name": "reInvestBluechipIntoPool",
      "outputs": [],
      "stateMutability": "nonpayable",
      "type": "function"
    },
    {
      "inputs": [],
      "name": "renounceOwnership",
      "outputs": [],
      "stateMutability": "nonpayable",
      "type": "function"
    },
    {
      "inputs": [],
      "name": "router",
      "outputs": [
        {
          "internalType": "enum SwapLib.Dex",
          "name": "dex",
          "type": "uint8"
        },
        {
          "internalType": "address",
          "name": "router",
          "type": "address"
        }
      ],
      "stateMutability": "view",
      "type": "function"
    },
    {
      "inputs": [
        {
          "internalType": "address",
          "name": "newDcaInvestor",
          "type": "address"
        }
      ],
      "name": "setDCAInvestor",
      "outputs": [],
      "stateMutability": "nonpayable",
      "type": "function"
    },
    {
      "inputs": [
        {
          "components": [
            {
              "internalType": "address",
              "name": "feeReceiver",
              "type": "address"
            },
            {
              "internalType": "uint16",
              "name": "fee",
              "type": "uint16"
            }
          ],
          "internalType": "struct DCABaseUpgradeableCutted.DepositFee",
          "name": "newDepositFee",
          "type": "tuple"
        }
      ],
      "name": "setDepositFee",
      "outputs": [],
      "stateMutability": "nonpayable",
      "type": "function"
    },
    {
      "inputs": [
        {
          "internalType": "uint256",
          "name": "newInvestmentPeriod",
          "type": "uint256"
        }
      ],
      "name": "setInvestmentPeriod",
      "outputs": [],
      "stateMutability": "nonpayable",
      "type": "function"
    },
    {
      "inputs": [
        {
          "internalType": "uint256",
          "name": "newMinDepositAmount",
          "type": "uint256"
        }
      ],
      "name": "setMinDepositAmount",
      "outputs": [],
      "stateMutability": "nonpayable",
      "type": "function"
    },
    {
      "inputs": [
        {
          "internalType": "uint16",
          "name": "newPositionsLimit",
          "type": "uint16"
        }
      ],
      "name": "setPositionsLimit",
      "outputs": [],
      "stateMutability": "nonpayable",
      "type": "function"
    },
    {
      "inputs": [
        {
          "components": [
            {
              "internalType": "enum SwapLib.Dex",
              "name": "dex",
              "type": "uint8"
            },
            {
              "internalType": "address",
              "name": "router",
              "type": "address"
            }
          ],
          "internalType": "struct SwapLib.Router",
          "name": "newRouter",
          "type": "tuple"
        }
      ],
      "name": "setRouter",
      "outputs": [],
      "stateMutability": "nonpayable",
      "type": "function"
    },
    {
      "inputs": [
        {
          "internalType": "address[]",
          "name": "depositToBluechipPath",
          "type": "address[]"
        },
        {
          "internalType": "address[]",
          "name": "bluechipToDepositPath",
          "type": "address[]"
        },
        {
          "internalType": "uint256[]",
          "name": "depositToBluechipBins",
          "type": "uint256[]"
        },
        {
          "internalType": "uint256[]",
          "name": "bluechipToDepositBins",
          "type": "uint256[]"
        }
      ],
      "name": "setSwapPath",
      "outputs": [],
      "stateMutability": "nonpayable",
      "type": "function"
    },
    {
      "inputs": [
        {
          "internalType": "address",
          "name": "newOwner",
          "type": "address"
        }
      ],
      "name": "transferOwnership",
      "outputs": [],
      "stateMutability": "nonpayable",
      "type": "function"
    },
    {
      "inputs": [],
      "name": "unpause",
      "outputs": [],
      "stateMutability": "nonpayable",
      "type": "function"
    },
    {
      "inputs": [
        {
          "internalType": "uint256",
          "name": "",
          "type": "uint256"
        }
      ],
      "name": "unused",
      "outputs": [
        {
          "internalType": "address",
          "name": "",
          "type": "address"
        }
      ],
      "stateMutability": "view",
      "type": "function"
    },
    {
      "inputs": [
        {
          "internalType": "address",
          "name": "newImplementation",
          "type": "address"
        }
      ],
      "name": "upgradeTo",
      "outputs": [],
      "stateMutability": "nonpayable",
      "type": "function"
    },
    {
      "inputs": [
        {
          "internalType": "address",
          "name": "newImplementation",
          "type": "address"
        },
        {
          "internalType": "bytes",
          "name": "data",
          "type": "bytes"
        }
      ],
      "name": "upgradeToAndCall",
      "outputs": [],
      "stateMutability": "payable",
      "type": "function"
    },
    {
      "inputs": [
        {
          "internalType": "bool",
          "name": "convertBluechipIntoDepositAsset",
          "type": "bool"
        }
      ],
      "name": "withdrawAll",
      "outputs": [],
      "stateMutability": "nonpayable",
      "type": "function"
    },
    {
      "inputs": [],
      "name": "withdrawBluechipFromPool",
      "outputs": [],
      "stateMutability": "nonpayable",
      "type": "function"
    },
    {
      "stateMutability": "payable",
      "type": "receive"
    }
  ],
  "bytecode": "0x60a0604052306080523480156200001557600080fd5b506200002062000026565b6200013f565b6200003260ff62000035565b50565b60008054610100900460ff16156200009e578160ff1660011480156200006e57506200006c30620000e260201b620020bb1760201c565b155b620000965760405162461bcd60e51b81526004016200008d90620000f1565b60405180910390fd5b506000919050565b60005460ff808416911610620000c85760405162461bcd60e51b81526004016200008d90620000f1565b506000805460ff191660ff92909216919091179055600190565b6001600160a01b03163b151590565b6020808252602e908201527f496e697469616c697a61626c653a20636f6e747261637420697320616c72656160408201526d191e481a5b9a5d1a585b1a5e995960921b606082015260800190565b6080516150a66200017760003960008181610bd401528181610c1401528181610e9c01528181610edc0152610f5801526150a66000f3fe6080604052600436106102485760003560e01c80630a6d45ed1461025457806317f186e4146102875780631af28a41146102a95780631c1c6fe5146102f75780631c71704614610317578063268141cc146103375780632a80cda31461035c57806336340cda1461037c5780633659cfe6146103a9578063390d9bc4146103c95780633a775d28146103f85780633d19d66b146104185780633f4ba83a1461044557806346fed79c1461045a5780634f1ef2861461047a578063523cddfe1461048d57806352d1902d146104a45780635aaed0b6146104b95780635c975abb146104d0578063645006ca146104e8578063654cfdff146104ff57806366e21cb31461051f57806367a5279314610542578063715018a6146105925780638456cb59146105a757806385db0bb8146105bc578063888777f3146105dd5780638da5cb5b146105fd57806390befd12146106125780639833f01f146106275780639c0fe00914610647578063af0ad88e1461066f578063b3280bed14610685578063b71af36c146106b2578063ba2d7775146106d2578063bada5b5e146106e9578063bef217cc14610709578063c75abdb714610729578063c89039c514610749578063c8ec025d14610768578063d1d411e114610795578063db23582e146107aa578063dc351d96146107d7578063e3c7689a146107f7578063e8b5e51f14610817578063eadf55151461082c578063ed6b4b4714610841578063ee2bee5914610876578063f2e3288d1461088d578063f2fde38b146108af578063f887ea40146108cf57600080fd5b3661024f57005b600080fd5b34801561026057600080fd5b5061027461026f3660046140e3565b610908565b6040519081526020015b60405180910390f35b34801561029357600080fd5b506102a76102a236600461417f565b61092a565b005b3480156102b557600080fd5b5061023e546102d6906001600160a01b03811690600160a01b900460ff1682565b604080516001600160a01b03909316835260ff90911660208301520161027e565b34801561030357600080fd5b506102a76103123660046141d2565b610a01565b34801561032357600080fd5b506102a76103323660046140e3565b610a79565b34801561034357600080fd5b5061034c610afa565b604051901515815260200161027e565b34801561036857600080fd5b506102a76103773660046140e3565b610b1c565b34801561038857600080fd5b5061039c6103973660046140e3565b610b9e565b60405161027e91906141ef565b3480156103b557600080fd5b506102a76103c4366004614203565b610bc9565b3480156103d557600080fd5b50610135546103e59061ffff1681565b60405161ffff909116815260200161027e565b34801561040457600080fd5b506102746104133660046140e3565b610c92565b34801561042457600080fd5b50610438610433366004614203565b610ca3565b60405161027e9190614220565b34801561045157600080fd5b506102a7610d4e565b34801561046657600080fd5b506102a76104753660046142a4565b610d87565b6102a76104883660046142d7565b610e91565b34801561049957600080fd5b506102746101325481565b3480156104b057600080fd5b50610274610f4b565b3480156104c557600080fd5b5061027461023d5481565b3480156104dc57600080fd5b5060975460ff1661034c565b3480156104f457600080fd5b506102746101345481565b34801561050b57600080fd5b506102a761051a36600461438d565b610ff9565b34801561052b57600080fd5b506102385460405160ff909116815260200161027e565b34801561054e57600080fd5b5061012e54610570906001600160a01b03811690600160a01b900461ffff1682565b604080516001600160a01b03909316835261ffff90911660208301520161027e565b34801561059e57600080fd5b506102a7611090565b3480156105b357600080fd5b506102a76110c9565b3480156105c857600080fd5b5061012f5461039c906001600160a01b031681565b3480156105e957600080fd5b506102a76105f8366004614419565b611100565b34801561060957600080fd5b5061039c6114a7565b34801561061e57600080fd5b506102a76114b6565b34801561063357600080fd5b506102a7610642366004614203565b61155d565b34801561065357600080fd5b50610138546106629060ff1681565b60405161027e919061451c565b34801561067b57600080fd5b5061023a54610274565b34801561069157600080fd5b5061024b546102d6906001600160a01b03811690600160a01b900460ff1682565b3480156106be57600080fd5b5061039c6106cd3660046140e3565b6115fc565b3480156106de57600080fd5b5061027461023f5481565b3480156106f557600080fd5b506102a7610704366004614536565b61160d565b34801561071557600080fd5b5061039c6107243660046140e3565b6116a3565b34801561073557600080fd5b506102a7610744366004614643565b6116b4565b34801561075557600080fd5b50610130546001600160a01b031661039c565b34801561077457600080fd5b50610130546102d6906001600160a01b03811690600160a01b900460ff1682565b3480156107a157600080fd5b506102a76118e1565b3480156107b657600080fd5b5061023c546102d6906001600160a01b03811690600160a01b900460ff1682565b3480156107e357600080fd5b506102746107f23660046146ef565b611971565b34801561080357600080fd5b506102a761081236600461470c565b611992565b34801561082357600080fd5b506102a7611a22565b34801561083857600080fd5b5061034c611d3b565b34801561084d57600080fd5b5061086161085c3660046140e3565b611d5d565b6040805192835260208301919091520161027e565b34801561088257600080fd5b506102746101335481565b34801561089957600080fd5b506108a2611d75565b60405161027e9190614760565b3480156108bb57600080fd5b506102a76108ca366004614203565b61201e565b3480156108db57600080fd5b5061023b546108fa9060ff81169061010090046001600160a01b031682565b60405161027e9291906147c2565b610241818154811061091957600080fd5b600091825260209091200154905081565b336109336114a7565b6001600160a01b0316146109625760405162461bcd60e51b8152600401610959906147ee565b60405180910390fd5b60208101516001600160a01b03166109ad5760405162461bcd60e51b815260206004820152600e60248201526d24b73b30b634b2103937baba32b960911b6044820152606401610959565b805161023b8054839290829060ff191660018360048111156109d1576109d1614506565b02179055506020919091015181546001600160a01b0390911661010002610100600160a81b031990911617905550565b600260c9541415610a245760405162461bcd60e51b815260040161095990614823565b600260c95560975460ff1615610a4c5760405162461bcd60e51b81526004016109599061485a565b610a54611d3b565b15610a6757610a62336120ca565b610a71565b610a7133826122eb565b50600160c955565b33610a826114a7565b6001600160a01b031614610aa85760405162461bcd60e51b8152600401610959906147ee565b60008111610af45760405162461bcd60e51b8152602060048201526019602482015278125b9d985b1a59081a5b9d995cdd1b595b9d081c195c9a5bd9603a1b6044820152606401610959565b61013255565b600080610b0561250f565b118015610b175750610b15611d3b565b155b905090565b33610b256114a7565b6001600160a01b031614610b4b5760405162461bcd60e51b8152600401610959906147ee565b60008111610b985760405162461bcd60e51b815260206004820152601a602482015279125b9d985b1a59081b5a5b8819195c1bdcda5d08185b5bdd5b9d60321b6044820152606401610959565b61013455565b6101378181548110610baf57600080fd5b6000918252602090912001546001600160a01b0316905081565b306001600160a01b037f0000000000000000000000000000000000000000000000000000000000000000161415610c125760405162461bcd60e51b815260040161095990614884565b7f00000000000000000000000000000000000000000000000000000000000000006001600160a01b0316610c4461252e565b6001600160a01b031614610c6a5760405162461bcd60e51b8152600401610959906148be565b610c738161254a565b60408051600080825260208201909252610c8f91839190612579565b50565b610242818154811061091957600080fd5b6040805160208082018352606082526001600160a01b03841660009081526102408252838120845181548085028201870187529381018481529495909491938593859285015b82821015610d4057600084815260209081902060408051608081018252600486029092018054835260018082015460ff16848601526002820154928401929092526003015460608301529083529092019101610ce9565b505050915250909392505050565b33610d576114a7565b6001600160a01b031614610d7d5760405162461bcd60e51b8152600401610959906147ee565b610d856126e4565b565b33610d906114a7565b6001600160a01b031614610db65760405162461bcd60e51b8152600401610959906147ee565b80516001600160a01b0316610e045760405162461bcd60e51b815260206004820152601460248201527324b73b30b634b2103332b2903932b1b2b4bb32b960611b6044820152606401610959565b612710816020015161ffff161115610e575760405162461bcd60e51b8152602060048201526016602482015275496e76616c6964206665652070657263656e7461676560501b6044820152606401610959565b805161012e805460209093015161ffff16600160a01b026001600160b01b03199093166001600160a01b0390921691909117919091179055565b306001600160a01b037f0000000000000000000000000000000000000000000000000000000000000000161415610eda5760405162461bcd60e51b815260040161095990614884565b7f00000000000000000000000000000000000000000000000000000000000000006001600160a01b0316610f0c61252e565b6001600160a01b031614610f325760405162461bcd60e51b8152600401610959906148be565b610f3b8261254a565b610f4782826001612579565b5050565b6000306001600160a01b037f00000000000000000000000000000000000000000000000000000000000000001614610fe65760405162461bcd60e51b815260206004820152603860248201527f555550535570677261646561626c653a206d757374206e6f742062652063616c6044820152771b1959081d1a1c9bdd59da0819195b1959d85d1958d85b1b60421b6064820152608401610959565b5060008051602061500a83398151915290565b600260c954141561101c5760405162461bcd60e51b815260040161095990614823565b600260c95560975460ff16156110445760405162461bcd60e51b81526004016109599061485a565b60026101385460ff16600281111561105e5761105e614506565b141561107c5760405162461bcd60e51b8152600401610959906148f8565b611087338383612771565b5050600160c955565b336110996114a7565b6001600160a01b0316146110bf5760405162461bcd60e51b8152600401610959906147ee565b610d856000612a8c565b336110d26114a7565b6001600160a01b0316146110f85760405162461bcd60e51b8152600401610959906147ee565b610d85612ade565b336111096114a7565b6001600160a01b03161461112f5760405162461bcd60e51b8152600401610959906147ee565b60026101385460ff16600281111561114957611149614506565b14156111675760405162461bcd60e51b8152600401610959906148f8565b6000806101385460ff16600281111561118257611182614506565b141561119957611196611193612b36565b90565b90505b6111a36001612bf1565b6111ab612b36565b90508a61023c6111bb828261492e565b5086905061023e6111cc828261492e565b505061023c54610130546001600160a01b0390811691161461137a57610130546040516370a0823160e01b81526000916001600160a01b0316906370a082319061121a9030906004016141ef565b602060405180830381865afa158015611237573d6000803e3d6000fd5b505050506040513d601f19601f8201168201806040525081019061125b9190614987565b90506000611331828d8d80806020026020016040519081016040528093929190818152602001838360200280828437600081840152601f19601f820116905080830192505050505050508c8c80806020026020016040519081016040528093929190818152602001838360200280828437600092019190915250506040805180820190915261023b80549193509150829060ff16600481111561130057611300614506565b600481111561131157611311614506565b8152905461010090046001600160a01b0316602090910152929190612c48565b6101315461023c5461013054929350849261135f91859160ff600160a01b9283900481169290910416612eda565b61136991906149b6565b61137391906149d5565b61023d5550505b61023e546001600160a01b031661138f612f4d565b6001600160a01b03161461147557600061142f8287878080602002602001604051908101604052809392919081815260200183836020028082843760009201919091525050604080516020808b0282810182019093528a82529093508a925089918291850190849080828437600092019190915250506040805180820190915261023b80549193509150829060ff16600481111561130057611300614506565b90508161143a612f5d565b61023e5461145b908490600160a01b900460ff16611456612f72565b612eda565b61146591906149b6565b61146f91906149d5565b61023f55505b61147f6002612bf1565b6002600060405160008051602061502a83398151915290600090a35050505050505050505050565b60fb546001600160a01b031690565b336114bf6114a7565b6001600160a01b0316146114e55760405162461bcd60e51b8152600401610959906147ee565b60006101385460ff1660028111156114ff576114ff614506565b1461151c5760405162461bcd60e51b8152600401610959906149f7565b6000611526612b36565b9050806115338180612f83565b61153d6001612bf1565b600160005b60405160008051602061502a83398151915290600090a35050565b336115666114a7565b6001600160a01b03161461158c5760405162461bcd60e51b8152600401610959906147ee565b6001600160a01b0381166115d95760405162461bcd60e51b815260206004820152601460248201527324b73b30b634b2102221a09034b73b32b9ba37b960611b6044820152606401610959565b61012f80546001600160a01b0319166001600160a01b0392909216919091179055565b6101368181548110610baf57600080fd5b336116166114a7565b6001600160a01b03161461163c5760405162461bcd60e51b8152600401610959906147ee565b60008161ffff161161168a5760405162461bcd60e51b8152602060048201526017602482015276125b9d985b1a59081c1bdcda5d1a5bdb9cc81b1a5b5a5d604a1b6044820152606401610959565b610135805461ffff191661ffff92909216919091179055565b61012d8181548110610baf57600080fd5b336116bd6114a7565b6001600160a01b0316146116e35760405162461bcd60e51b8152600401610959906147ee565b82600184516116f29190614a29565b8151811061170257611702614a40565b60200260200101516001600160a01b03168460008151811061172657611726614a40565b60200260200101516001600160a01b031614801561179557508260008151811061175257611752614a40565b60200260200101516001600160a01b031684600186516117729190614a29565b8151811061178257611782614a40565b60200260200101516001600160a01b0316145b6117d55760405162461bcd60e51b8152602060048201526011602482015270092dcecc2d8d2c840e6eec2e040e0c2e8d607b1b6044820152606401610959565b835182516117e4906001614a56565b1461182e5760405162461bcd60e51b815260206004820152601a60248201527919195c151bd09b1d59481b195b99dd1a081a5b98dbdc9c9958dd60321b6044820152606401610959565b8251815161183d906001614a56565b146118875760405162461bcd60e51b815260206004820152601a602482015279109b1d59551bd1195c081b195b99dd1a081a5b98dbdc9c9958dd60321b6044820152606401610959565b835161189b90610136906020870190613fdf565b5082516118b090610137906020860190613fdf565b5081516118c590610241906020850190614044565b5080516118da90610242906020840190614044565b5050505050565b336118ea6114a7565b6001600160a01b0316146119105760405162461bcd60e51b8152600401610959906147ee565b60016101385460ff16600281111561192a5761192a614506565b146119475760405162461bcd60e51b8152600401610959906149f7565b6000611951612b36565b90508061195e8180612f83565b6119686000612bf1565b60006001611542565b600061013960ff80841690811061198a5761198a614a40565b015492915050565b600061199e600161302d565b905080156119b6576000805461ff0019166101001790555b6119be6130c1565b6119c7836130e8565b8161024b6119d5828261492e565b50508015611a1d576000805461ff0019169055604051600181527f7f26b83ff96e1f2b6a682f133852f6798a09c465da95921460cefb38474024989060200160405180910390a15b505050565b600260c9541415611a455760405162461bcd60e51b815260040161095990614823565b600260c95560975460ff1615611a6d5760405162461bcd60e51b81526004016109599061485a565b60026101385460ff166002811115611a8757611a87614506565b1415611aa55760405162461bcd60e51b8152600401610959906148f8565b61012f546001600160a01b0316336001600160a01b031614611af85760405162461bcd60e51b815260206004820152600c60248201526b155b985d5d1a1bdc9a5e995960a21b6044820152606401610959565b6000806000611b0561250f565b905080611b2557604051633c652dfd60e01b815260040160405180910390fd5b60005b81811015611c7e576000611b3d6101396132e3565b905080611b4a5750611c6c565b6000611c2682610136805480602002602001604051908101604052809291908181526020018280548015611ba757602002820191906000526020600020905b81546001600160a01b03168152600190910190602001808311611b89575b5050505050610241805480602002602001604051908101604052809291908181526020018280548015611bf957602002820191906000526020600020905b815481526020019060010190808311611be5575b50506040805180820190915261023b8054919450925083915060ff16600481111561130057611300614506565b905060006101385460ff166002811115611c4257611c42614506565b5050611c51610239838361334d565b611c5b8287614a56565b9550611c678186614a56565b945050505b80611c7681614a6e565b915050611b28565b5060006101385460ff166002811115611c9957611c99614506565b1415611cbc576000611cba565b611cb09190614a29565b610239919061339f565b505b61013254611cca90826149b6565b6101336000828254611cdc9190614a56565b90915550506101335461023a546040805186815260208101869052808201939093526060830191909152517f03f1ebb486e02a72b2e0cd5883710aa96dff19f4dc8d68cd12325dda79d4a68f9181900360800190a15050600160c95550565b600060026101385460ff166002811115611d5757611d57614506565b14905090565b600080611d6c610239846133df565b91509150915091565b60408051600180825281830190925260609160009190816020015b611dbd6040518060600160405280600081526020016000815260200160006001600160a01b031681525090565b815260200190600190039081611d90579050509050611dda611d3b565b15611f475761023c546040516370a0823160e01b81526001600160a01b03909116906370a0823190611e109030906004016141ef565b602060405180830381865afa158015611e2d573d6000803e3d6000fd5b505050506040513d601f19601f82011682018060405250810190611e519190614987565b81600081518110611e6457611e64614a40565b60209081029190910101515261023e546040516370a0823160e01b81526001600160a01b03909116906370a0823190611ea19030906004016141ef565b602060405180830381865afa158015611ebe573d6000803e3d6000fd5b505050506040513d601f19601f82011682018060405250810190611ee29190614987565b81600081518110611ef557611ef5614a40565b602090810291909101810151015261023e5481516001600160a01b03909116908290600090611f2657611f26614a40565b60209081029190910101516001600160a01b03909116604090910152919050565b610130546040516370a0823160e01b81526001600160a01b03909116906370a0823190611f789030906004016141ef565b602060405180830381865afa158015611f95573d6000803e3d6000fd5b505050506040513d601f19601f82011682018060405250810190611fb99190614987565b81600081518110611fcc57611fcc614a40565b602090810291909101015152611fe0612b36565b81600081518110611ff357611ff3614a40565b6020026020010151602001818152505061200b612f4d565b81600081518110611f2657611f26614a40565b336120276114a7565b6001600160a01b03161461204d5760405162461bcd60e51b8152600401610959906147ee565b6001600160a01b0381166120b25760405162461bcd60e51b815260206004820152602660248201527f4f776e61626c653a206e6577206f776e657220697320746865207a65726f206160448201526564647265737360d01b6064820152608401610959565b610c8f81612a8c565b6001600160a01b03163b151590565b6001600160a01b0381166000908152610240602052604081208190815b81548110156121865760008061215484600001848154811061210b5761210b614a40565b600091825260209182902060408051608081018252600490930290910180548352600181015460ff1693830193909352600283015490820152600390910154606082015261348f565b90925090506121638286614a56565b945061216f8187614a56565b95505050808061217e90614a6e565b9150506120e7565b506001600160a01b038416600090815261024060205260408120906121ab828261407f565b505061023c54610130546001600160a01b0390811691161461222e5760006122086101315461023d54866121df91906149b6565b6121e991906149d5565b6101305461023c5460ff600160a01b9283900481169290910416612eda565b905080156122285761023c54612228906001600160a01b03168683613572565b5061224c565b821561224c576101305461224c906001600160a01b03168585613572565b61023e546001600160a01b0316612261612f4d565b6001600160a01b0316146122d55760006122af61227c612f5d565b61023f5461228a90866149b6565b61229491906149d5565b61229c612f72565b61023e54600160a01b900460ff16612eda565b905080156122cf5761023e546122cf906001600160a01b03168683613572565b506122e5565b81156122e5576122e584836135c8565b50505050565b6001600160a01b0382166000908152610240602052604081208190815b815481101561235e5760008061232c84600001848154811061210b5761210b614a40565b909250905061233b8286614a56565b94506123478187614a56565b95505050808061235690614a6e565b915050612308565b506001600160a01b03851660009081526102406020526040812090612383828261407f565b505081156124965760006101385460ff1660028111156123a5576123a5614506565b50508315612496576124858261013780548060200260200160405190810160405280929190818152602001828054801561240857602002820191906000526020600020905b81546001600160a01b031681526001909101906020018083116123ea575b5050505050610242805480602002602001604051908101604052809291908181526020018280548015611bf95760200282019190600052602060002090815481526020019060010190808311611be55750506040805180820190915261023b8054919450925083915060ff16600481111561130057611300614506565b61248f9084614a56565b9250600091505b82156124b457610130546124b4906001600160a01b03168685613572565b81156124c4576124c485836135c8565b60408051848152602081018490526001600160a01b038716917ff279e6a1f5e320cca91135676d9cb6e44ca8a08c0b88342bcdb1144f6511b568910160405180910390a25050505050565b60006101325461013354426125249190614a29565b610b1791906149d5565b60008051602061500a833981519152546001600160a01b031690565b336125536114a7565b6001600160a01b031614610c8f5760405162461bcd60e51b8152600401610959906147ee565b7f4910fdfa16fed3260ed0e7147f7cc6da11a60208b5b9406d12a635614ffd91435460ff16156125ac57611a1d836135e0565b826001600160a01b03166352d1902d6040518163ffffffff1660e01b8152600401602060405180830381865afa925050508015612606575060408051601f3d908101601f1916820190925261260391810190614987565b60015b6126695760405162461bcd60e51b815260206004820152602e60248201527f45524331393637557067726164653a206e657720696d706c656d656e7461746960448201526d6f6e206973206e6f74205555505360901b6064820152608401610959565b60008051602061500a83398151915281146126d85760405162461bcd60e51b815260206004820152602960248201527f45524331393637557067726164653a20756e737570706f727465642070726f786044820152681a58589b195555525160ba1b6064820152608401610959565b50611a1d83838361367a565b60975460ff1661272d5760405162461bcd60e51b815260206004820152601460248201527314185d5cd8589b194e881b9bdd081c185d5cd95960621b6044820152606401610959565b6097805460ff191690557f5db9ee0a495bf2e6ff9c91a7834c1ba4fdd244a5e8aa4e537bd38aeae4b073aa335b60405161276791906141ef565b60405180910390a1565b610134548210156127955760405163b2f77e5160e01b815260040160405180910390fd5b6127ae33610130546001600160a01b031690308561369f565b61012e54600160a01b900461ffff16156128335761012e54600090612710906127e290600160a01b900461ffff1682614a89565b6127f09061ffff16856149b6565b6127fa91906149d5565b905060006128088285614a29565b9050801561282f5761012e546101305461282f916001600160a01b03918216911683613572565b5091505b6001600160a01b03831660009081526102406020526040902061013554815461ffff909116141561287757604051630f34778160e31b815260040160405180910390fd5b61288461013984846136d7565b60005b81548110156129b8576000610132548360000183815481106128ab576128ab614a40565b906000526020600020906004020160020154610133546128cb9190614a29565b6128d591906149d5565b90508015801561291257508360ff168360000183815481106128f9576128f9614a40565b600091825260209091206001600490920201015460ff16145b156129a55760ff841661292581876149d5565b61292f91906149b6565b83600001838154811061294457612944614a40565b906000526020600020906004020160000160008282546129649190614a56565b90915550506040805186815260ff861660208201526001600160a01b03881691600080516020614fca833981519152910160405180910390a2505050505050565b50806129b081614a6e565b915050612887565b50604080516080810190915281908060ff85166129d581886149d5565b6129df91906149b6565b81526020018460ff168152602001610133548152602001612a036102396001015490565b90528154600180820184556000938452602093849020835160049093020191825582840151908201805460ff191660ff92831617905560408084015160028401556060909301516003909201919091558151868152908516928101929092526001600160a01b03861691600080516020614fca833981519152910160405180910390a250505050565b60fb80546001600160a01b038381166001600160a01b0319831681179093556040519116919082907f8be0079c531659141344cd1fd0a4f28419497f9722a3daafe3b4186f6b6457e090600090a35050565b60975460ff1615612b015760405162461bcd60e51b81526004016109599061485a565b6097805460ff191660011790557f62e78cea01bee320cd4e420270b5ea74000d11b0c9f74754ebdbfc544b05a25861275a3390565b6000806101385460ff166002811115612b5157612b51614506565b1480612b74575060016101385460ff166002811115612b7257612b72614506565b145b15612beb5761024b546040516370a0823160e01b81526001600160a01b03909116906370a0823190612baa9030906004016141ef565b602060405180830381865afa158015612bc7573d6000803e3d6000fd5b505050506040513d601f19601f82011682018060405250810190610b179190614987565b50600090565b33612bfa6114a7565b6001600160a01b031614612c205760405162461bcd60e51b8152600401610959906147ee565b610138805482919060ff19166001836002811115612c4057612c40614506565b021790555050565b6000612c8685602001518585600081518110612c6657612c66614a40565b60200260200101516001600160a01b03166137af9092919063ffffffff16565b600085516004811115612c9b57612c9b614506565b1415612d505760208501516040516338ed173960e01b81526001600160a01b038216906338ed173990612cdb908890600090899030904290600401614af0565b6000604051808303816000875af1158015612cfa573d6000803e3d6000fd5b505050506040513d6000823e601f3d908101601f19168201604052612d229190810190614b2c565b60018551612d309190614a29565b81518110612d4057612d40614a40565b6020026020010151915050612ed2565b600385516004811115612d6557612d65614506565b1415612e2457600085602001519050806001600160a01b031663c04b8d596040518060a00160405280612d98888861384f565b8152602001306001600160a01b0316815260200142815260200188815260200160008152506040518263ffffffff1660e01b8152600401612dd99190614c09565b6020604051808303816000875af1158015612df8573d6000803e3d6000fd5b505050506040513d601f19601f82011682018060405250810190612e1c9190614987565b915050612ed2565b600185516004811115612e3957612e39614506565b1415612e7b576020850151604051636d0ff49560e01b81526001600160a01b03821690636d0ff49590612dd990889060009088908a9030904290600401614c61565b60405162461bcd60e51b815260206004820152602660248201527f537761704c69623a20496e76616c69642073776170207365727669636520707260448201526537bb34b232b960d11b6064820152608401610959565b949350505050565b60008160ff168360ff161015612f1357612ef48383614cdd565b612f029060ff16600a614de4565b612f0c90856149b6565b9050612f46565b8160ff168360ff161115612f4357612f2b8284614cdd565b612f399060ff16600a614de4565b612f0c90856149d5565b50825b9392505050565b61024b546001600160a01b031690565b6000612f67612f72565b610b1790600a614df0565b61024b54600160a01b900460ff1690565b81811115612fa457610f47612f988383614a29565b61023a54600190611ca6565b81811015610f47576000612fb88284614a29565b905060006001612fcb6102396001015490565b612fd59190614a29565b90505b6000612fe6610239836133df565b915050828110612fff576118da61023983600086613930565b6130098184614a29565b925061301a61023983600084613930565b508061302581614dff565b915050612fd8565b60008054610100900460ff161561307b578160ff1660011480156130575750613055306120bb565b155b6130735760405162461bcd60e51b815260040161095990614e16565b506000919050565b60005460ff8084169116106130a25760405162461bcd60e51b815260040161095990614e16565b506000805460ff191660ff92909216919091179055600190565b919050565b600054610100900460ff16610d855760405162461bcd60e51b815260040161095990614e64565b600054610100900460ff1661310f5760405162461bcd60e51b815260040161095990614e64565b6131176139ac565b61311f6139db565b613127613a0a565b6131316000612bf1565b613143610475368390038301836142a4565b6131566106426060830160408401614203565b60608101610130613167828261492e565b5061317a905060a08201608083016146ef565b61318590600a614df0565b6101315561319660a0820135610a79565b6131a38160c00135613a39565b6131b08160e00135610b1c565b6131c561070461012083016101008401614536565b6131db6102a2368390038301610120840161417f565b610c8f6131ec610160830183614eaf565b8080602002602001604051908101604052809392919081815260200183836020028082843760009201919091525061322c92505050610180840184614eaf565b8080602002602001604051908101604052809392919081815260200183836020028082843760009201919091525061326c925050506101a0850185614eaf565b808060200260200160405190810160405280939291908181526020018383602002808284376000920191909152506132ac925050506101c0860186614eaf565b808060200260200160405190810160405280939291908181526020018383602002808284376000920191909152506116b492505050565b60ff808201546000918291849190811690811061330257613302614a40565b015460ff80850154919250600091859190811690811061332457613324614a40565b015560ff808401546133369116613a8b565b60ff938401805460ff191691909416179092555090565b60408051808201909152828152602080820183815285546001818101885560008881529384209451600290920290940190815590519083015590840180549161339583614a6e565b9190505550505050565b818360000182815481106133b5576133b5614a40565b906000526020600020906002020160010160008282546133d59190614a56565b9091555050505050565b60008083600101548311156134355760405162461bcd60e51b815260206004820152601c60248201527b444341486973746f72794c69623a204f7574206f6620626f756e647360201b6044820152606401610959565b83600001838154811061344a5761344a614a40565b90600052602060002090600202016000015484600001848154811061347157613471614a40565b906000526020600020906002020160010154915091505b9250929050565b6000806000610132548460400151610133546134ab9190614a29565b6134b591906149d5565b9050836020015160ff168111156134d05750602083015160ff165b6000846020015160ff1685600001516134e991906149d5565b905060008286602001516134fd9190614cdd565b905060ff811615613515576135156101398383613ab2565b821561355b57600080613529888686613b10565b90925090506135388288614a56565b8851909750613548908290614a29565b6135529087614a56565b9550505061356a565b85516135679085614a56565b93505b505050915091565b611a1d8363a9059cbb60e01b8484604051602401613591929190614ef8565b60408051601f198184030181529190526020810180516001600160e01b03166001600160e01b031990931692909217909152613ba4565b61024b54610f47906001600160a01b03168383613572565b6135e9816120bb565b61364b5760405162461bcd60e51b815260206004820152602d60248201527f455243313936373a206e657720696d706c656d656e746174696f6e206973206e60448201526c1bdd08184818dbdb9d1c9858dd609a1b6064820152608401610959565b60008051602061500a83398151915280546001600160a01b0319166001600160a01b0392909216919091179055565b61368383613c76565b6000825111806136905750805b15611a1d576122e58383613cb6565b6040516001600160a01b03808516602483015283166044820152606481018290526122e59085906323b872dd60e01b90608401613591565b60ff8160ff16106137365760405162461bcd60e51b8152602060048201526024808201527f496e7665737451756575654c69623a20496e76616c696420616d6f756e7420736044820152631c1b1a5d60e21b6064820152608401610959565b60ff8084015481169060009061374e908416856149d5565b905060005b8360ff168110156137a757818660ff80861690811061377457613774614a40565b0160008282546137849190614a56565b90915550613793905083613a8b565b92508061379f81614a6e565b915050613753565b505050505050565b604051636eb1769f60e11b81523060048201526001600160a01b038381166024830152600091839186169063dd62ed3e90604401602060405180830381865afa158015613800573d6000803e3d6000fd5b505050506040513d601f19601f820116820180604052508101906138249190614987565b61382e9190614a56565b90506122e58463095ea7b360e01b8584604051602401613591929190614ef8565b60608260008151811061386457613864614a40565b602002602001015160405160200161388f919060609190911b6001600160601b031916815260140190565b604051602081830303815290604052905060005b82518110156139295760008382815181106138c0576138c0614a40565b602002602001015190508281868460016138da9190614a56565b815181106138ea576138ea614a40565b602002602001015160405160200161390493929190614f11565b604051602081830303815290604052925050808061392190614a6e565b9150506138a3565b5092915050565b8184600001848154811061394657613946614a40565b906000526020600020906002020160000160008282546139669190614a29565b90915550508354819085908590811061398157613981614a40565b906000526020600020906002020160010160008282546139a19190614a29565b909155505050505050565b600054610100900460ff166139d35760405162461bcd60e51b815260040161095990614e64565b610d85613da8565b600054610100900460ff16613a025760405162461bcd60e51b815260040161095990614e64565b610d85613dd7565b600054610100900460ff16613a315760405162461bcd60e51b815260040161095990614e64565b610d85613e0a565b61013354811015613a855760405162461bcd60e51b8152602060048201526016602482015275496e76616c6964206c61737420696e7665737420747360501b6044820152606401610959565b61013355565b600060fe8260ff161415613aa157506000919050565b613aac826001614f58565b92915050565b60ff808401541660005b8260ff168110156118da57838560ff808516908110613add57613add614a40565b016000828254613aed9190614a29565b90915550613afc905082613a8b565b915080613b0881614a6e565b915050613abc565b606083015160009081905b848660600151613b2b9190614a56565b811015613b9b57600080613b41610239846133df565b9092509050600082613b5388846149b6565b613b5d91906149d5565b9050613b698187614a56565b9550613b758786614a56565b9450613b85610239858984613930565b5050508080613b9390614a6e565b915050613b1b565b50935093915050565b6000613bf9826040518060400160405280602081526020017f5361666545524332303a206c6f772d6c6576656c2063616c6c206661696c6564815250856001600160a01b0316613e389092919063ffffffff16565b805190915015611a1d5780806020019051810190613c179190614f7d565b611a1d5760405162461bcd60e51b815260206004820152602a60248201527f5361666545524332303a204552433230206f7065726174696f6e20646964206e6044820152691bdd081cdd58d8d9595960b21b6064820152608401610959565b613c7f816135e0565b6040516001600160a01b038216907fbc7cd75a20ee27fd9adebab32041f755214dbc6bffa90cc0225b39da2e5c2d3b90600090a250565b6060613cc1836120bb565b613d1c5760405162461bcd60e51b815260206004820152602660248201527f416464726573733a2064656c65676174652063616c6c20746f206e6f6e2d636f6044820152651b9d1c9858dd60d21b6064820152608401610959565b600080846001600160a01b031684604051613d379190614f9a565b600060405180830381855af49150503d8060008114613d72576040519150601f19603f3d011682016040523d82523d6000602084013e613d77565b606091505b5091509150613d9f828260405180606001604052806027815260200161504a60279139613e47565b95945050505050565b600054610100900460ff16613dcf5760405162461bcd60e51b815260040161095990614e64565b610d85613e80565b600054610100900460ff16613dfe5760405162461bcd60e51b815260040161095990614e64565b6097805460ff19169055565b600054610100900460ff16613e315760405162461bcd60e51b815260040161095990614e64565b600160c955565b6060612ed28484600085613eb0565b60608315613e56575081612f46565b825115613e665782518084602001fd5b8160405162461bcd60e51b81526004016109599190614fb6565b600054610100900460ff16613ea75760405162461bcd60e51b815260040161095990614e64565b610d8533612a8c565b606082471015613f115760405162461bcd60e51b815260206004820152602660248201527f416464726573733a20696e73756666696369656e742062616c616e636520666f6044820152651c8818d85b1b60d21b6064820152608401610959565b613f1a856120bb565b613f665760405162461bcd60e51b815260206004820152601d60248201527f416464726573733a2063616c6c20746f206e6f6e2d636f6e74726163740000006044820152606401610959565b600080866001600160a01b03168587604051613f829190614f9a565b60006040518083038185875af1925050503d8060008114613fbf576040519150601f19603f3d011682016040523d82523d6000602084013e613fc4565b606091505b5091509150613fd4828286613e47565b979650505050505050565b828054828255906000526020600020908101928215614034579160200282015b8281111561403457825182546001600160a01b0319166001600160a01b03909116178255602090920191600190910190613fff565b506140409291506140a0565b5090565b828054828255906000526020600020908101928215614034579160200282015b82811115614034578251825591602001919060010190614064565b5080546000825560040290600052602060002090810190610c8f91906140b5565b5b8082111561404057600081556001016140a1565b5b8082111561404057600080825560018201805460ff191690556002820181905560038201556004016140b6565b6000602082840312156140f557600080fd5b5035919050565b634e487b7160e01b600052604160045260246000fd5b604080519081016001600160401b0381118282101715614134576141346140fc565b60405290565b604051601f8201601f191681016001600160401b0381118282101715614162576141626140fc565b604052919050565b6001600160a01b0381168114610c8f57600080fd5b60006040828403121561419157600080fd5b614199614112565b8235600581106141a857600080fd5b815260208301356141b88161416a565b60208201529392505050565b8015158114610c8f57600080fd5b6000602082840312156141e457600080fd5b8135612f46816141c4565b6001600160a01b0391909116815260200190565b60006020828403121561421557600080fd5b8135612f468161416a565b60006020808352604080840185518384870152818151808452606093508388019150858301925060005b81811015614284578351805184528781015160ff16888501528681015187850152850151858401529286019260809092019160010161424a565b509098975050505050505050565b803561ffff811681146130bc57600080fd5b6000604082840312156142b657600080fd5b6142be614112565b82356142c98161416a565b81526141b860208401614292565b600080604083850312156142ea57600080fd5b82356142f58161416a565b91506020838101356001600160401b038082111561431257600080fd5b818601915086601f83011261432657600080fd5b813581811115614338576143386140fc565b61434a601f8201601f1916850161413a565b9150808252878482850101111561436057600080fd5b80848401858401376000848284010152508093505050509250929050565b60ff81168114610c8f57600080fd5b600080604083850312156143a057600080fd5b8235915060208301356143b28161437e565b809150509250929050565b6000604082840312156143cf57600080fd5b50919050565b60008083601f8401126143e757600080fd5b5081356001600160401b038111156143fe57600080fd5b6020830191508360208260051b850101111561348857600080fd5b6000806000806000806000806000806101008b8d03121561443957600080fd5b6144438c8c6143bd565b995060408b01356001600160401b038082111561445f57600080fd5b61446b8e838f016143d5565b909b50995060608d013591508082111561448457600080fd5b6144908e838f016143d5565b90995097508791506144a58e60808f016143bd565b965060c08d01359150808211156144bb57600080fd5b6144c78e838f016143d5565b909650945060e08d01359150808211156144e057600080fd5b506144ed8d828e016143d5565b915080935050809150509295989b9194979a5092959850565b634e487b7160e01b600052602160045260246000fd5b602081016003831061453057614530614506565b91905290565b60006020828403121561454857600080fd5b612f4682614292565b60006001600160401b0382111561456a5761456a6140fc565b5060051b60200190565b600082601f83011261458557600080fd5b8135602061459a61459583614551565b61413a565b82815260059290921b840181019181810190868411156145b957600080fd5b8286015b848110156145dd5780356145d08161416a565b83529183019183016145bd565b509695505050505050565b600082601f8301126145f957600080fd5b8135602061460961459583614551565b82815260059290921b8401810191818101908684111561462857600080fd5b8286015b848110156145dd578035835291830191830161462c565b6000806000806080858703121561465957600080fd5b84356001600160401b038082111561467057600080fd5b61467c88838901614574565b9550602087013591508082111561469257600080fd5b61469e88838901614574565b945060408701359150808211156146b457600080fd5b6146c0888389016145e8565b935060608701359150808211156146d657600080fd5b506146e3878288016145e8565b91505092959194509250565b60006020828403121561470157600080fd5b8135612f468161437e565b6000806060838503121561471f57600080fd5b82356001600160401b0381111561473557600080fd5b83016101e0818603121561474857600080fd5b915061475784602085016143bd565b90509250929050565b602080825282518282018190526000919060409081850190868401855b828110156147b55781518051855286810151878601528501516001600160a01b0316858501526060909301929085019060010161477d565b5091979650505050505050565b60408101600584106147d6576147d6614506565b9281526001600160a01b039190911660209091015290565b6020808252818101527f4f776e61626c653a2063616c6c6572206973206e6f7420746865206f776e6572604082015260600190565b6020808252601f908201527f5265656e7472616e637947756172643a207265656e7472616e742063616c6c00604082015260600190565b60208082526010908201526f14185d5cd8589b194e881c185d5cd95960821b604082015260600190565b6020808252602c90820152600080516020614fea83398151915260408201526b19195b1959d85d1958d85b1b60a21b606082015260800190565b6020808252602c90820152600080516020614fea83398151915260408201526b6163746976652070726f787960a01b606082015260800190565b6020808252601c908201527b14dd1c985d1959de481a5cc8195b595c99d95b98de48195e1a5d195960221b604082015260600190565b81356149398161416a565b81546001600160a01b031981166001600160a01b0392909216918217835560208401356149658161437e565b6001600160a81b03199190911690911760a09190911b60ff60a01b1617905550565b60006020828403121561499957600080fd5b5051919050565b634e487b7160e01b600052601160045260246000fd5b60008160001904831182151516156149d0576149d06149a0565b500290565b6000826149f257634e487b7160e01b600052601260045260246000fd5b500490565b602080825260189082015277496e76616c696420696e766573746d656e7420737461746560401b604082015260600190565b600082821015614a3b57614a3b6149a0565b500390565b634e487b7160e01b600052603260045260246000fd5b60008219821115614a6957614a696149a0565b500190565b6000600019821415614a8257614a826149a0565b5060010190565b600061ffff83811690831681811015614aa457614aa46149a0565b039392505050565b600081518084526020808501945080840160005b83811015614ae55781516001600160a01b031687529582019590820190600101614ac0565b509495945050505050565b85815284602082015260a060408201526000614b0f60a0830186614aac565b6001600160a01b0394909416606083015250608001529392505050565b60006020808385031215614b3f57600080fd5b82516001600160401b03811115614b5557600080fd5b8301601f81018513614b6657600080fd5b8051614b7461459582614551565b81815260059190911b82018301908381019087831115614b9357600080fd5b928401925b82841015613fd457835182529284019290840190614b98565b60005b83811015614bcc578181015183820152602001614bb4565b838111156122e55750506000910152565b60008151808452614bf5816020860160208601614bb1565b601f01601f19169290920160200192915050565b602081526000825160a06020840152614c2560c0840182614bdd565b905060018060a01b0360208501511660408401526040840151606084015260608401516080840152608084015160a08401528091505092915050565b600060c082018883526020888185015260c0604085015281885180845260e086019150828a01935060005b81811015614ca857845183529383019391830191600101614c8c565b50508481036060860152614cbc8189614aac565b6001600160a01b039790971660808601525050505060a00152949350505050565b600060ff821660ff841680821015614cf757614cf76149a0565b90039392505050565b600181815b80851115614d3b578160001904821115614d2157614d216149a0565b80851615614d2e57918102915b93841c9390800290614d05565b509250929050565b600082614d5257506001613aac565b81614d5f57506000613aac565b8160018114614d755760028114614d7f57614d9b565b6001915050613aac565b60ff841115614d9057614d906149a0565b50506001821b613aac565b5060208310610133831016604e8410600b8410161715614dbe575081810a613aac565b614dc88383614d00565b8060001904821115614ddc57614ddc6149a0565b029392505050565b6000612f468383614d43565b6000612f4660ff841683614d43565b600081614e0e57614e0e6149a0565b506000190190565b6020808252602e908201527f496e697469616c697a61626c653a20636f6e747261637420697320616c72656160408201526d191e481a5b9a5d1a585b1a5e995960921b606082015260800190565b6020808252602b908201527f496e697469616c697a61626c653a20636f6e7472616374206973206e6f74206960408201526a6e697469616c697a696e6760a81b606082015260800190565b6000808335601e19843603018112614ec657600080fd5b8301803591506001600160401b03821115614ee057600080fd5b6020019150600581901b360382131561348857600080fd5b6001600160a01b03929092168252602082015260400190565b60008451614f23818460208901614bb1565b60e89490941b6001600160e81b0319169190930190815260609190911b6001600160601b031916600382015260170192915050565b600060ff821660ff84168060ff03821115614f7557614f756149a0565b019392505050565b600060208284031215614f8f57600080fd5b8151612f46816141c4565b60008251614fac818460208701614bb1565b9190910192915050565b602081526000612f466020830184614bdd56fe90890809c654f11d6e72a28fa60149770a0d11ec6c92319d6ceb2bb0a4ea1a1546756e6374696f6e206d7573742062652063616c6c6564207468726f75676820360894a13ba1a3210667c828492db98dca3e2076cc3735a920a3ca505d382bbce1377aa21d49fa10bb9ece6a0cd4f75597a90a80c3750f7f7674967f49ab9a62416464726573733a206c6f772d6c6576656c2064656c65676174652063616c6c206661696c6564a2646970667358221220e88b5f0ddcc7c673ffc51229a1e2c4e1b4d491261620305562f930ec8f402fa264736f6c634300080a0033",
  "linkReferences": {},
  "deployedLinkReferences": {}
}